{
  "contractName": "MerkleRoutine",
  "abi": [
    {
      "inputs": [],
      "stateMutability": "nonpayable",
      "type": "constructor"
    },
    {
      "inputs": [
        {
          "internalType": "enum MerkleRoutine.Term",
          "name": "_term",
          "type": "uint8"
        }
      ],
      "name": "createRoutine",
      "outputs": [
        {
          "internalType": "uint256",
          "name": "",
          "type": "uint256"
        }
      ],
      "stateMutability": "payable",
      "type": "function",
      "payable": true
    },
    {
      "inputs": [
        {
          "internalType": "uint256",
          "name": "id",
          "type": "uint256"
        }
      ],
      "name": "deleteRoutine",
      "outputs": [],
      "stateMutability": "payable",
      "type": "function",
      "payable": true
    },
    {
      "inputs": [
        {
          "internalType": "uint256",
          "name": "id",
          "type": "uint256"
        }
      ],
      "name": "cancelParticipateRoutine",
      "outputs": [],
      "stateMutability": "payable",
      "type": "function",
      "payable": true
    },
    {
      "inputs": [
        {
          "internalType": "uint256",
          "name": "id",
          "type": "uint256"
        }
      ],
      "name": "participateRoutine",
      "outputs": [],
      "stateMutability": "payable",
      "type": "function",
      "payable": true
    },
    {
      "inputs": [
        {
          "internalType": "uint256",
          "name": "id",
          "type": "uint256"
        }
      ],
      "name": "startRoutine",
      "outputs": [],
      "stateMutability": "payable",
      "type": "function",
      "payable": true
    },
    {
      "inputs": [
        {
          "internalType": "address",
          "name": "addr",
          "type": "address"
        },
        {
          "internalType": "uint256",
          "name": "id",
          "type": "uint256"
        }
      ],
      "name": "failRoutine",
      "outputs": [],
      "stateMutability": "nonpayable",
      "type": "function"
    },
    {
      "inputs": [
        {
          "internalType": "uint256",
          "name": "id",
          "type": "uint256"
        }
      ],
      "name": "endRoutine",
      "outputs": [],
      "stateMutability": "nonpayable",
      "type": "function"
    },
    {
      "inputs": [],
      "name": "routineTotalBalance",
      "outputs": [
        {
          "internalType": "uint256",
          "name": "",
          "type": "uint256"
        }
      ],
      "stateMutability": "view",
      "type": "function",
      "constant": true
    },
    {
      "inputs": [
        {
          "internalType": "uint256",
          "name": "id",
          "type": "uint256"
        }
      ],
      "name": "routineById",
      "outputs": [
        {
          "components": [
            {
              "internalType": "uint256",
              "name": "fee",
              "type": "uint256"
            },
            {
              "internalType": "enum MerkleRoutine.Status",
              "name": "status",
              "type": "uint8"
            },
            {
              "internalType": "enum MerkleRoutine.Term",
              "name": "term",
              "type": "uint8"
            },
            {
              "internalType": "uint256",
              "name": "participates",
              "type": "uint256"
            },
            {
              "internalType": "uint256",
              "name": "totalParticipates",
              "type": "uint256"
            },
            {
              "internalType": "uint256",
              "name": "amount",
              "type": "uint256"
            }
          ],
          "internalType": "struct MerkleRoutine.Routine",
          "name": "",
          "type": "tuple"
        }
      ],
      "stateMutability": "view",
      "type": "function",
      "constant": true
    },
    {
      "inputs": [
        {
          "internalType": "address",
          "name": "user",
          "type": "address"
        }
      ],
      "name": "routinNumByAddress",
      "outputs": [
        {
          "internalType": "uint256",
          "name": "",
          "type": "uint256"
        }
      ],
      "stateMutability": "view",
      "type": "function",
      "constant": true
    },
    {
      "inputs": [
        {
          "internalType": "uint256",
          "name": "id",
          "type": "uint256"
        }
      ],
      "name": "routineStatusById",
      "outputs": [
        {
          "internalType": "enum MerkleRoutine.Status",
          "name": "",
          "type": "uint8"
        }
      ],
      "stateMutability": "view",
      "type": "function",
      "constant": true
    },
    {
      "inputs": [
        {
          "internalType": "address",
          "name": "addr",
          "type": "address"
        },
        {
          "internalType": "uint256",
          "name": "index",
          "type": "uint256"
        }
      ],
      "name": "routineIdByAddressAndIndex",
      "outputs": [
        {
          "internalType": "uint256",
          "name": "",
          "type": "uint256"
        }
      ],
      "stateMutability": "view",
      "type": "function",
      "constant": true
    },
    {
      "inputs": [
        {
          "internalType": "uint256",
          "name": "id",
          "type": "uint256"
        }
      ],
      "name": "participantNumById",
      "outputs": [
        {
          "internalType": "uint256",
          "name": "",
          "type": "uint256"
        }
      ],
      "stateMutability": "view",
      "type": "function",
      "constant": true
    },
    {
      "inputs": [
        {
          "internalType": "uint256",
          "name": "id",
          "type": "uint256"
        }
      ],
      "name": "ownerOfRoutine",
      "outputs": [
        {
          "internalType": "address",
          "name": "",
          "type": "address"
        }
      ],
      "stateMutability": "view",
      "type": "function",
      "constant": true
    },
    {
      "inputs": [
        {
          "internalType": "uint256",
          "name": "id",
          "type": "uint256"
        },
        {
          "internalType": "uint256",
          "name": "index",
          "type": "uint256"
        }
      ],
      "name": "participantOfRoutineByIndex",
      "outputs": [
        {
          "internalType": "address",
          "name": "",
          "type": "address"
        }
      ],
      "stateMutability": "view",
      "type": "function",
      "constant": true
    },
    {
      "inputs": [],
      "name": "contractBalance",
      "outputs": [
        {
          "internalType": "uint256",
          "name": "",
          "type": "uint256"
        }
      ],
      "stateMutability": "view",
      "type": "function",
      "constant": true
    }
  ],
  "bytecode": "0x60a060405234801561001057600080fd5b503373ffffffffffffffffffffffffffffffffffffffff1660808173ffffffffffffffffffffffffffffffffffffffff168152505060805161296f610067600039600081816108d20152610a49015261296f6000f3fe6080604052600436106100f25760003560e01c80637113f8351161008a578063c0afb5fa11610059578063c0afb5fa14610338578063d972b9c514610354578063f4115fc714610370578063f5800f34146103ad576100f2565b80637113f8351461026a5780638b7afe2e146102a7578063a34c124b146102d2578063b885ce8b146102fb576100f2565b8063264d5d31116100c6578063264d5d31146101975780632ce71c86146101d457806357d2c6821461021157806362f8ff4514610241576100f2565b8062aa9773146100f75780630fa80bb214610113578063108685671461012f578063114c6c071461016c575b600080fd5b610111600480360381019061010c9190611ef5565b6103ea565b005b61012d60048036038101906101289190611ef5565b61056f565b005b34801561013b57600080fd5b5061015660048036038101906101519190611ef5565b6106db565b6040516101639190611f99565b60405180910390f35b34801561017857600080fd5b50610181610708565b60405161018e9190611fc3565b60405180910390f35b3480156101a357600080fd5b506101be60048036038101906101b99190611ef5565b610711565b6040516101cb9190611fc3565b60405180910390f35b3480156101e057600080fd5b506101fb60048036038101906101f69190611ef5565b610731565b60405161020891906120bf565b60405180910390f35b61022b600480360381019061022691906120ff565b6107fc565b6040516102389190611fc3565b60405180910390f35b34801561024d57600080fd5b506102686004803603810190610263919061218a565b6108d0565b005b34801561027657600080fd5b50610291600480360381019061028c91906121ca565b6109f6565b60405161029e9190611fc3565b60405180910390f35b3480156102b357600080fd5b506102bc610a3f565b6040516102c99190611fc3565b60405180910390f35b3480156102de57600080fd5b506102f960048036038101906102f49190611ef5565b610a47565b005b34801561030757600080fd5b50610322600480360381019061031d919061218a565b610e2b565b60405161032f9190611fc3565b60405180910390f35b610352600480360381019061034d9190611ef5565b610e91565b005b61036e60048036038101906103699190611ef5565b6110a9565b005b34801561037c57600080fd5b5061039760048036038101906103929190611ef5565b611238565b6040516103a49190612206565b60405180910390f35b3480156103b957600080fd5b506103d460048036038101906103cf9190612221565b611275565b6040516103e19190612206565b60405180910390f35b6103f481336112cf565b610433576040517f08c379a000000000000000000000000000000000000000000000000000000000815260040161042a906122e4565b60405180910390fd5b61043d81336113a9565b61047c576040517f08c379a0000000000000000000000000000000000000000000000000000000008152600401610473906122e4565b60405180910390fd5b600060038111156104905761048f611f22565b5b6001600083815260200190815260200160002060010160009054906101000a900460ff1660038111156104c6576104c5611f22565b5b14610506576040517f08c379a00000000000000000000000000000000000000000000000000000000081526004016104fd90612376565b60405180910390fd5b3373ffffffffffffffffffffffffffffffffffffffff166108fc60016000848152602001908152602001600020600001549081150290604051600060405180830381858888f19350505050158015610562573d6000803e3d6000fd5b5061056c8161147a565b50565b3373ffffffffffffffffffffffffffffffffffffffff166003600083815260200190815260200160002060009054906101000a900473ffffffffffffffffffffffffffffffffffffffff1673ffffffffffffffffffffffffffffffffffffffff1614610610576040517f08c379a000000000000000000000000000000000000000000000000000000000815260040161060790612408565b60405180910390fd5b6000600381111561062457610623611f22565b5b6001600083815260200190815260200160002060010160009054906101000a900460ff16600381111561065a57610659611f22565b5b1461069a576040517f08c379a00000000000000000000000000000000000000000000000000000000081526004016106919061249a565b60405180910390fd5b600180600083815260200190815260200160002060010160006101000a81548160ff021916908360038111156106d3576106d2611f22565b5b021790555050565b60006001600083815260200190815260200160002060010160009054906101000a900460ff169050919050565b60008054905090565b600060016000838152602001908152602001600020600201549050919050565b610739611e60565b600160008381526020019081526020016000206040518060c0016040529081600082015481526020016001820160009054906101000a900460ff16600381111561078657610785611f22565b5b600381111561079857610797611f22565b5b81526020016001820160019054906101000a900460ff1660088111156107c1576107c0611f22565b5b60088111156107d3576107d2611f22565b5b815260200160028201548152602001600382015481526020016004820154815250509050919050565b6000803411610840576040517f08c379a00000000000000000000000000000000000000000000000000000000081526004016108379061252c565b60405180910390fd5b60006040518060c001604052803481526020016000600381111561086757610866611f22565b5b815260200184600881111561087f5761087e611f22565b5b81526020016000815260200160008152602001600081525090506108a2816114f6565b6108b960016000546108b4919061257b565b611658565b60016000546108c8919061257b565b915050919050565b7f000000000000000000000000000000000000000000000000000000000000000073ffffffffffffffffffffffffffffffffffffffff163373ffffffffffffffffffffffffffffffffffffffff161461095e576040517f08c379a000000000000000000000000000000000000000000000000000000000815260040161095590612408565b60405180910390fd5b6001600381111561097257610971611f22565b5b6001600083815260200190815260200160002060010160009054906101000a900460ff1660038111156109a8576109a7611f22565b5b146109e8576040517f08c379a00000000000000000000000000000000000000000000000000000000081526004016109df90612621565b60405180910390fd5b6109f2818361180f565b5050565b6000600660008373ffffffffffffffffffffffffffffffffffffffff1673ffffffffffffffffffffffffffffffffffffffff168152602001908152602001600020549050919050565b600047905090565b7f000000000000000000000000000000000000000000000000000000000000000073ffffffffffffffffffffffffffffffffffffffff163373ffffffffffffffffffffffffffffffffffffffff1614610ad5576040517f08c379a0000000000000000000000000000000000000000000000000000000008152600401610acc90612408565b60405180910390fd5b6000600160008381526020019081526020016000206004015490506000600160008481526020019081526020016000206003015490506000600160008581526020019081526020016000206002015490506000600182610b35919061257b565b600184610b429190612641565b610b4c9190612675565b90506000600183610b5d9190612641565b84610b689190612675565b90506000818383610b79919061257b565b87610b849190612675565b610b8e91906126fe565b9050600060018060008a815260200190815260200160002060020154610bb4919061257b565b82600160008b815260200190815260200160002060040154610bd6919061257b565b610be091906126fe565b905060005b600160008a815260200190815260200160002060020154811015610de157600360008a815260200190815260200160002060009054906101000a900473ffffffffffffffffffffffffffffffffffffffff1673ffffffffffffffffffffffffffffffffffffffff16600560008b81526020019081526020016000208281548110610c7257610c7161272f565b5b9060005260206000200160009054906101000a900473ffffffffffffffffffffffffffffffffffffffff1673ffffffffffffffffffffffffffffffffffffffff1614610d5357600560008a81526020019081526020016000208181548110610cdd57610cdc61272f565b5b9060005260206000200160009054906101000a900473ffffffffffffffffffffffffffffffffffffffff1673ffffffffffffffffffffffffffffffffffffffff166108fc839081150290604051600060405180830381858888f19350505050158015610d4d573d6000803e3d6000fd5b50610dce565b600360008a815260200190815260200160002060009054906101000a900473ffffffffffffffffffffffffffffffffffffffff1673ffffffffffffffffffffffffffffffffffffffff166108fc849081150290604051600060405180830381858888f19350505050158015610dcc573d6000803e3d6000fd5b505b8080610dd99061275e565b915050610be5565b506003600160008a815260200190815260200160002060010160006101000a81548160ff02191690836003811115610e1c57610e1b611f22565b5b02179055505050505050505050565b6000600460008473ffffffffffffffffffffffffffffffffffffffff1673ffffffffffffffffffffffffffffffffffffffff1681526020019081526020016000208281548110610e7e57610e7d61272f565b5b9060005260206000200154905092915050565b3373ffffffffffffffffffffffffffffffffffffffff166003600083815260200190815260200160002060009054906101000a900473ffffffffffffffffffffffffffffffffffffffff1673ffffffffffffffffffffffffffffffffffffffff1614610f32576040517f08c379a0000000000000000000000000000000000000000000000000000000008152600401610f2990612408565b60405180910390fd5b60006003811115610f4657610f45611f22565b5b6001600083815260200190815260200160002060010160009054906101000a900460ff166003811115610f7c57610f7b611f22565b5b14610fbc576040517f08c379a0000000000000000000000000000000000000000000000000000000008152600401610fb390612376565b60405180910390fd5b60005b600160008381526020019081526020016000206002015481101561109c576005600083815260200190815260200160002081815481106110025761100161272f565b5b9060005260206000200160009054906101000a900473ffffffffffffffffffffffffffffffffffffffff1673ffffffffffffffffffffffffffffffffffffffff166108fc60016000858152602001908152602001600020600001549081150290604051600060405180830381858888f19350505050158015611088573d6000803e3d6000fd5b5080806110949061275e565b915050610fbf565b506110a681611853565b50565b60016000828152602001908152602001600020600001543414611101576040517f08c379a00000000000000000000000000000000000000000000000000000000081526004016110f89061252c565b60405180910390fd5b6000600381111561111557611114611f22565b5b6001600083815260200190815260200160002060010160009054906101000a900460ff16600381111561114b5761114a611f22565b5b1461118b576040517f08c379a000000000000000000000000000000000000000000000000000000000815260040161118290612376565b60405180910390fd5b3373ffffffffffffffffffffffffffffffffffffffff166003600083815260200190815260200160002060009054906101000a900473ffffffffffffffffffffffffffffffffffffffff1673ffffffffffffffffffffffffffffffffffffffff160361122c576040517f08c379a000000000000000000000000000000000000000000000000000000000815260040161122390612818565b60405180910390fd5b61123581611658565b50565b60006003600083815260200190815260200160002060009054906101000a900473ffffffffffffffffffffffffffffffffffffffff169050919050565b600060056000848152602001908152602001600020828154811061129c5761129b61272f565b5b9060005260206000200160009054906101000a900473ffffffffffffffffffffffffffffffffffffffff16905092915050565b600080600090505b600660008473ffffffffffffffffffffffffffffffffffffffff1673ffffffffffffffffffffffffffffffffffffffff1681526020019081526020016000205481101561139d5783600460008573ffffffffffffffffffffffffffffffffffffffff1673ffffffffffffffffffffffffffffffffffffffff16815260200190815260200160002082815481106113705761136f61272f565b5b90600052602060002001540361138a5760019150506113a3565b80806113959061275e565b9150506112d7565b50600090505b92915050565b600080600090505b600160008581526020019081526020016000206002015481101561146e578273ffffffffffffffffffffffffffffffffffffffff1660056000868152602001908152602001600020828154811061140b5761140a61272f565b5b9060005260206000200160009054906101000a900473ffffffffffffffffffffffffffffffffffffffff1673ffffffffffffffffffffffffffffffffffffffff160361145b576001915050611474565b80806114669061275e565b9150506113b1565b50600090505b92915050565b60016000828152602001908152602001600020600001546001600083815260200190815260200160002060040160008282546114b6919061257b565b925050819055506001600082815260200190815260200160002060030160008154809291906114e490612838565b91905055506114f3813361180f565b50565b33600360008054815260200190815260200160002060006101000a81548173ffffffffffffffffffffffffffffffffffffffff021916908373ffffffffffffffffffffffffffffffffffffffff160217905550600260003373ffffffffffffffffffffffffffffffffffffffff1673ffffffffffffffffffffffffffffffffffffffff16815260200190815260200160002060008154809291906115999061275e565b91905055508060016000805481526020019081526020016000206000820151816000015560208201518160010160006101000a81548160ff021916908360038111156115e8576115e7611f22565b5b021790555060408201518160010160016101000a81548160ff0219169083600881111561161857611617611f22565b5b0217905550606082015181600201556080820151816003015560a082015181600401559050506000808154809291906116509061275e565b919050555050565b3460016000838152602001908152602001600020600401600082825461167e9190612641565b925050819055506001600082815260200190815260200160002060020160008154809291906116ac9061275e565b91905055506001600082815260200190815260200160002060030160008154809291906116d89061275e565b9190505550600660003373ffffffffffffffffffffffffffffffffffffffff1673ffffffffffffffffffffffffffffffffffffffff168152602001908152602001600020600081548092919061172d9061275e565b9190505550600460003373ffffffffffffffffffffffffffffffffffffffff1673ffffffffffffffffffffffffffffffffffffffff16815260200190815260200160002081908060018154018082558091505060019003906000526020600020016000909190919091505560056000828152602001908152602001600020339080600181540180825580915050600190039060005260206000200160009091909190916101000a81548173ffffffffffffffffffffffffffffffffffffffff021916908373ffffffffffffffffffffffffffffffffffffffff16021790555050565b61181982826118b1565b6118238282611ac9565b60016000838152602001908152602001600020600201600081548092919061184a90612838565b91905055505050565b6000600160008381526020019081526020016000206004018190555060026001600083815260200190815260200160002060010160006101000a81548160ff021916908360038111156118a9576118a8611f22565b5b021790555050565b60006118bd8383611c2d565b9050600460008373ffffffffffffffffffffffffffffffffffffffff1673ffffffffffffffffffffffffffffffffffffffff1681526020019081526020016000206001600660008573ffffffffffffffffffffffffffffffffffffffff1673ffffffffffffffffffffffffffffffffffffffff1681526020019081526020016000205461194a919061257b565b8154811061195b5761195a61272f565b5b9060005260206000200154600460008473ffffffffffffffffffffffffffffffffffffffff1673ffffffffffffffffffffffffffffffffffffffff16815260200190815260200160002082815481106119b7576119b661272f565b5b9060005260206000200181905550600660008373ffffffffffffffffffffffffffffffffffffffff1673ffffffffffffffffffffffffffffffffffffffff1681526020019081526020016000206000815480929190611a1590612838565b9190505550600460008373ffffffffffffffffffffffffffffffffffffffff1673ffffffffffffffffffffffffffffffffffffffff1681526020019081526020016000206001600660008573ffffffffffffffffffffffffffffffffffffffff1673ffffffffffffffffffffffffffffffffffffffff16815260200190815260200160002054611aa5919061257b565b81548110611ab657611ab561272f565b5b9060005260206000200160009055505050565b6000611ad58383611d4b565b905060056000848152602001908152602001600020600180600086815260200190815260200160002060020154611b0c919061257b565b81548110611b1d57611b1c61272f565b5b9060005260206000200160009054906101000a900473ffffffffffffffffffffffffffffffffffffffff16600560008581526020019081526020016000208281548110611b6d57611b6c61272f565b5b9060005260206000200160006101000a81548173ffffffffffffffffffffffffffffffffffffffff021916908373ffffffffffffffffffffffffffffffffffffffff16021790555060056000848152602001908152602001600020600180600086815260200190815260200160002060020154611bea919061257b565b81548110611bfb57611bfa61272f565b5b9060005260206000200160006101000a81549073ffffffffffffffffffffffffffffffffffffffff0219169055505050565b60008060009050611c3e84846112cf565b611c7d576040517f08c379a0000000000000000000000000000000000000000000000000000000008152600401611c74906128ad565b60405180910390fd5b60005b600660008573ffffffffffffffffffffffffffffffffffffffff1673ffffffffffffffffffffffffffffffffffffffff16815260200190815260200160002054811015611d405784600460008673ffffffffffffffffffffffffffffffffffffffff1673ffffffffffffffffffffffffffffffffffffffff1681526020019081526020016000208281548110611d1957611d1861272f565b5b906000526020600020015403611d2d578091505b8080611d389061275e565b915050611c80565b508091505092915050565b60008060009050611d5c84846113a9565b611d9b576040517f08c379a0000000000000000000000000000000000000000000000000000000008152600401611d9290612919565b60405180910390fd5b60005b6001600086815260200190815260200160002060020154811015611e55578373ffffffffffffffffffffffffffffffffffffffff16600560008781526020019081526020016000208281548110611df857611df761272f565b5b9060005260206000200160009054906101000a900473ffffffffffffffffffffffffffffffffffffffff1673ffffffffffffffffffffffffffffffffffffffff1603611e42578091505b8080611e4d9061275e565b915050611d9e565b508091505092915050565b6040518060c001604052806000815260200160006003811115611e8657611e85611f22565b5b815260200160006008811115611e9f57611e9e611f22565b5b81526020016000815260200160008152602001600081525090565b600080fd5b6000819050919050565b611ed281611ebf565b8114611edd57600080fd5b50565b600081359050611eef81611ec9565b92915050565b600060208284031215611f0b57611f0a611eba565b5b6000611f1984828501611ee0565b91505092915050565b7f4e487b7100000000000000000000000000000000000000000000000000000000600052602160045260246000fd5b60048110611f6257611f61611f22565b5b50565b6000819050611f7382611f51565b919050565b6000611f8382611f65565b9050919050565b611f9381611f78565b82525050565b6000602082019050611fae6000830184611f8a565b92915050565b611fbd81611ebf565b82525050565b6000602082019050611fd86000830184611fb4565b92915050565b611fe781611ebf565b82525050565b611ff681611f78565b82525050565b6009811061200d5761200c611f22565b5b50565b600081905061201e82611ffc565b919050565b600061202e82612010565b9050919050565b61203e81612023565b82525050565b60c08201600082015161205a6000850182611fde565b50602082015161206d6020850182611fed565b5060408201516120806040850182612035565b5060608201516120936060850182611fde565b5060808201516120a66080850182611fde565b5060a08201516120b960a0850182611fde565b50505050565b600060c0820190506120d46000830184612044565b92915050565b600981106120e757600080fd5b50565b6000813590506120f9816120da565b92915050565b60006020828403121561211557612114611eba565b5b6000612123848285016120ea565b91505092915050565b600073ffffffffffffffffffffffffffffffffffffffff82169050919050565b60006121578261212c565b9050919050565b6121678161214c565b811461217257600080fd5b50565b6000813590506121848161215e565b92915050565b600080604083850312156121a1576121a0611eba565b5b60006121af85828601612175565b92505060206121c085828601611ee0565b9150509250929050565b6000602082840312156121e0576121df611eba565b5b60006121ee84828501612175565b91505092915050565b6122008161214c565b82525050565b600060208201905061221b60008301846121f7565b92915050565b6000806040838503121561223857612237611eba565b5b600061224685828601611ee0565b925050602061225785828601611ee0565b9150509250929050565b600082825260208201905092915050565b7f4558495354204552524f52203a20526f7574696e65204973204e6f742045786960008201527f73742e0000000000000000000000000000000000000000000000000000000000602082015250565b60006122ce602383612261565b91506122d982612272565b604082019050919050565b600060208201905081810360008301526122fd816122c1565b9050919050565b7f535441545553204552524f52203a2054686520526f7574696e65204973204e6f60008201527f742052656372756974696e672e00000000000000000000000000000000000000602082015250565b6000612360602d83612261565b915061236b82612304565b604082019050919050565b6000602082019050818103600083015261238f81612353565b9050919050565b7f5045524d495353494f4e204552524f52203a20596f7520446f6e27742048617660008201527f65205065726d697373696f6e2e00000000000000000000000000000000000000602082015250565b60006123f2602d83612261565b91506123fd82612396565b604082019050919050565b60006020820190508181036000830152612421816123e5565b9050919050565b7f535441545553204552524f52203a20537461747573206973204e6f74204f6e6760008201527f6f696e672e000000000000000000000000000000000000000000000000000000602082015250565b6000612484602583612261565b915061248f82612428565b604082019050919050565b600060208201905081810360008301526124b381612477565b9050919050565b7f464545204552524f52203a20596f75204861766520546f20506179204120466560008201527f6500000000000000000000000000000000000000000000000000000000000000602082015250565b6000612516602183612261565b9150612521826124ba565b604082019050919050565b6000602082019050818103600083015261254581612509565b9050919050565b7f4e487b7100000000000000000000000000000000000000000000000000000000600052601160045260246000fd5b600061258682611ebf565b915061259183611ebf565b92508282039050818111156125a9576125a861254c565b5b92915050565b7f535441545553204552524f52203a2054686520526f7574696e65204973204e6f60008201527f74204f6e676f696e670000000000000000000000000000000000000000000000602082015250565b600061260b602983612261565b9150612616826125af565b604082019050919050565b6000602082019050818103600083015261263a816125fe565b9050919050565b600061264c82611ebf565b915061265783611ebf565b925082820190508082111561266f5761266e61254c565b5b92915050565b600061268082611ebf565b915061268b83611ebf565b9250817fffffffffffffffffffffffffffffffffffffffffffffffffffffffffffffffff04831182151516156126c4576126c361254c565b5b828202905092915050565b7f4e487b7100000000000000000000000000000000000000000000000000000000600052601260045260246000fd5b600061270982611ebf565b915061271483611ebf565b925082612724576127236126cf565b5b828204905092915050565b7f4e487b7100000000000000000000000000000000000000000000000000000000600052603260045260246000fd5b600061276982611ebf565b91507fffffffffffffffffffffffffffffffffffffffffffffffffffffffffffffffff820361279b5761279a61254c565b5b600182019050919050565b7f5045524d495353494f4e204552524f52203a20596f7520417265204f776e657260008201527f204f662054686520526f7574696e650000000000000000000000000000000000602082015250565b6000612802602f83612261565b915061280d826127a6565b604082019050919050565b60006020820190508181036000830152612831816127f5565b9050919050565b600061284382611ebf565b9150600082036128565761285561254c565b5b600182039050919050565b7f526f7574696e65204973204e6f742045786973742e0000000000000000000000600082015250565b6000612897601583612261565b91506128a282612861565b602082019050919050565b600060208201905081810360008301526128c68161288a565b9050919050565b7f5061727469636970616e74204973204e6f742045786973742e00000000000000600082015250565b6000612903601983612261565b915061290e826128cd565b602082019050919050565b60006020820190508181036000830152612932816128f6565b905091905056fea26469706673582212205e4afab697750ea5d1150999619e0d32cc98ce284e51a45f35996cacd594f34e64736f6c63430008100033",
  "immutableReferences": {
    "18": [
      {
        "length": 32,
        "start": 2258
      },
      {
        "length": 32,
        "start": 2633
      }
    ]
  },
  "source": "//SPDX l\npragma solidity ^0.8.13;\n\ncontract MerkleRoutine {\n    enum Status {\n        Recruiting,\n        Ongoing,\n        Cancellation,\n        End\n    }\n\n    enum Term {\n        EVERY_DAY,\n        WEEKDAY,\n        WEEKEND,\n        ONCE,\n        TWICE,\n        THREE,\n        FOUR,\n        FIVE,\n        SIX\n    }\n\n    address private immutable manager;\n\n    constructor() {\n        manager = msg.sender;\n    }\n\n    // klay => \n    //  => evm    ,     =>  \n\n    //   ?\n    // tx hash or contract  \n    struct Routine {\n        uint256 fee;\n        Status status;\n        Term term;\n        uint256 participates; //  ?     ?\n        uint256 totalParticipates;\n        uint256 amount;\n    }\n\n    uint256 private _totalBalance;\n    mapping(uint256 => Routine) private _routines; //  \n    mapping(address => uint256) private _balances; //   \n    mapping(uint256 => address) private _routineOwner; //   \n    mapping(address => uint256[]) private _participateRoutines; //  id\n    mapping(uint256 => address[]) private _routineParticipants; //  \n    mapping(address => uint256) private _participateRoutinesLen;\n\n    //mapping(uint256 => mapping(address => uint256)) private _refrees;\n\n    /**\n     * @dev Owner Make Routine, and Recruiting Participants\n     * @param _term Certificate Term\n     */\n    function createRoutine(Term _term) public payable returns (uint256) {\n        require(msg.value > 0, \"FEE ERROR : You Have To Pay A Fee\");\n        Routine memory routine = Routine(\n            msg.value,\n            Status.Recruiting,\n            _term,\n            0,\n            0,\n            0\n        );\n        _addRoutine(routine);\n        _participateRoutine(_totalBalance - 1);\n        return _totalBalance - 1;\n    }\n\n    /**\n     * @dev Owner Can Cancel Recruiting Routine. But Owner can not be gave back fee\n     * @param id Routine Id\n     */\n    function deleteRoutine(uint256 id) external payable {\n        require(\n            _routineOwner[id] == msg.sender,\n            \"PERMISSION ERROR : You Don't Have Permission.\"\n        );\n        require(\n            _routines[id].status == Status.Recruiting,\n            \"STATUS ERROR : The Routine Is Not Recruiting.\"\n        );\n        for (uint256 i = 0; i < _routines[id].participates; i++) {\n            payable(_routineParticipants[id][i]).transfer(_routines[id].fee);\n        }\n        _cancelRoutine(id);\n    }\n\n    /**\n     * @dev Participant Can Cancel Participation Routine\n     * @param id Routine Id\n     */\n    function cancelParticipateRoutine(uint256 id) external payable {\n        require(\n            _isExistRoutine(id, msg.sender),\n            \"EXIST ERROR : Routine Is Not Exist.\"\n        );\n        require(\n            _isExistParticipant(id, msg.sender),\n            \"EXIST ERROR : Routine Is Not Exist.\"\n        );\n        require(\n            _routines[id].status == Status.Recruiting,\n            \"STATUS ERROR : The Routine Is Not Recruiting.\"\n        );\n        payable(msg.sender).transfer(_routines[id].fee);\n\n        _cancelParticipateRoutine(id);\n    }\n\n    /**\n     * @dev Participant Can Cancel Participation Routine\n     * @param id Routine Id\n     */\n    function participateRoutine(uint256 id) public payable {\n        require(\n            msg.value == _routines[id].fee,\n            \"FEE ERROR : You Have To Pay A Fee\"\n        );\n        require(\n            _routines[id].status == Status.Recruiting,\n            \"STATUS ERROR : The Routine Is Not Recruiting.\"\n        );\n        require(\n            _routineOwner[id] != msg.sender,\n            \"PERMISSION ERROR : You Are Owner Of The Routine\"\n        );\n        _participateRoutine(id);\n    }\n\n    function startRoutine(uint256 id) public payable {\n        require(\n            _routineOwner[id] == msg.sender,\n            \"PERMISSION ERROR : You Don't Have Permission.\"\n        );\n        require(\n            _routines[id].status == Status.Recruiting,\n            \"STATUS ERROR : Status is Not Ongoing.\"\n        );\n        _routines[id].status = Status.Ongoing;\n    }\n\n    function failRoutine(address addr, uint256 id) public {\n        require(\n            msg.sender == manager,\n            \"PERMISSION ERROR : You Don't Have Permission.\"\n        );\n        require(\n            _routines[id].status == Status.Ongoing,\n            \"STATUS ERROR : The Routine Is Not Ongoing\"\n        );\n        _deletePariticipant(id, addr);\n    }\n\n    function endRoutine(uint256 id) public {\n        require(\n            msg.sender == manager,\n            \"PERMISSION ERROR : You Don't Have Permission.\"\n        );\n        uint256 A = _routines[id].amount;\n        uint256 N = _routines[id].totalParticipates;\n        uint256 S = _routines[id].participates;\n        uint256 head = ((N + 1) * (S - 1));\n        uint256 body = (N * (S + 1));\n\n        uint256 OwnersAwards = (A * (body - head)) / body;\n\n        uint256 participantsAwards = (_routines[id].amount - OwnersAwards) /\n            (_routines[id].participates - 1);\n\n        for (uint256 i = 0; i < _routines[id].participates; i++) {\n            if (_routineParticipants[id][i] != _routineOwner[id]) {\n                payable(_routineParticipants[id][i]).transfer(\n                    participantsAwards\n                );\n                continue;\n            }\n            payable(_routineOwner[id]).transfer(OwnersAwards);\n        }\n        _routines[id].status = Status.End;\n    }\n\n    /**\n     * @dev Make Routine\n     * @param _routine Routine\n     */\n    function _addRoutine(Routine memory _routine) private {\n        _routineOwner[_totalBalance] = msg.sender;\n        _balances[msg.sender]++;\n        _routines[_totalBalance] = _routine;\n        _totalBalance++;\n    }\n\n    function _deletePariticipant(uint256 id, address addr) private {\n        _popParticipateRoutine(id, addr);\n        _popRoutineParticipant(id, addr);\n        _routines[id].participates--;\n    }\n\n    function _cancelParticipateRoutine(uint256 id) private {\n        _routines[id].amount -= _routines[id].fee;\n        _routines[id].totalParticipates--;\n        _deletePariticipant(id, msg.sender);\n    }\n\n    /**\n     * @dev Check that Routine Id Exist in _participateRoutines[addr]\n     * @param id Routine Id\n     * @param addr Participant's Address\n     */\n    function _isExistRoutine(uint256 id, address addr)\n        private\n        view\n        returns (bool)\n    {\n        for (uint256 i = 0; i < _participateRoutinesLen[addr]; i++) {\n            if (_participateRoutines[addr][i] == id) {\n                return true;\n            }\n        }\n        return false;\n    }\n\n    function _isExistParticipant(uint256 id, address addr)\n        private\n        view\n        returns (bool)\n    {\n        for (uint256 i = 0; i < _routines[id].participates; i++) {\n            if (_routineParticipants[id][i] == addr) {\n                return true;\n            }\n        }\n        return false;\n    }\n\n    function _indexOfRoutineFromAddress(uint256 id, address addr)\n        private\n        view\n        returns (uint256)\n    {\n        uint256 index = 0;\n        require(_isExistRoutine(id, addr), \"Routine Is Not Exist.\");\n        for (uint256 i = 0; i < _participateRoutinesLen[addr]; i++) {\n            if (_participateRoutines[addr][i] == id) {\n                index = i;\n            }\n        }\n        return index;\n    }\n\n    function _indexOfParticipantFromId(uint256 id, address addr)\n        private\n        view\n        returns (uint256)\n    {\n        uint256 index = 0;\n        require(_isExistParticipant(id, addr), \"Participant Is Not Exist.\");\n        for (uint256 i = 0; i < _routines[id].participates; i++) {\n            if (_routineParticipants[id][i] == addr) {\n                index = i;\n            }\n        }\n        return index;\n    }\n\n    function _popParticipateRoutine(uint256 id, address addr) private {\n        uint256 index = _indexOfRoutineFromAddress(id, addr);\n\n        _participateRoutines[addr][index] = _participateRoutines[addr][\n            _participateRoutinesLen[addr] - 1\n        ];\n        _participateRoutinesLen[addr]--;\n        delete _participateRoutines[addr][_participateRoutinesLen[addr] - 1];\n    }\n\n    function _popRoutineParticipant(uint256 id, address addr) private {\n        uint256 index = _indexOfParticipantFromId(id, addr);\n\n        _routineParticipants[id][index] = _routineParticipants[id][\n            _routines[id].participates - 1\n        ];\n        delete _routineParticipants[id][_routines[id].participates - 1];\n    }\n\n    function _participateRoutine(uint256 id) private {\n        _routines[id].amount += msg.value;\n        _routines[id].participates++;\n        _routines[id].totalParticipates++;\n        _participateRoutinesLen[msg.sender]++;\n\n        _participateRoutines[msg.sender].push(id);\n        _routineParticipants[id].push(msg.sender);\n    }\n\n    function _cancelRoutine(uint256 id) private {\n        _routines[id].amount = 0;\n        _routines[id].status = Status.Cancellation;\n    }\n\n    function routineTotalBalance() public view returns (uint256) {\n        return _totalBalance;\n    }\n\n    function routineById(uint256 id) public view returns (Routine memory) {\n        return _routines[id];\n    }\n\n    function routinNumByAddress(address user) public view returns (uint256) {\n        return _participateRoutinesLen[user];\n    }\n\n    function routineStatusById(uint256 id) public view returns (Status) {\n        return _routines[id].status;\n    }\n\n    function routineIdByAddressAndIndex(address addr, uint256 index)\n        public\n        view\n        returns (uint256)\n    {\n        return _participateRoutines[addr][index];\n    }\n\n    function participantNumById(uint256 id) public view returns (uint256) {\n        return _routines[id].participates;\n    }\n\n    function ownerOfRoutine(uint256 id) public view returns (address) {\n        return _routineOwner[id];\n    }\n\n    function participantOfRoutineByIndex(uint256 id, uint256 index)\n        public\n        view\n        returns (address)\n    {\n        return _routineParticipants[id][index];\n    }\n\n    function contractBalance() public view returns (uint256) {\n        return address(this).balance;\n    }\n}\n",
  "sourcePath": "/Users/odongjae/Desktop/2022Study/dreamplus/MuckleRoutine-contract/contracts/MerkleRoutine.sol",
  "compiler": {
    "name": "solc",
    "version": "0.8.16+commit.07a7930e.Emscripten.clang"
  },
  "schemaVersion": "3.4.9",
  "updatedAt": "2022-11-25T23:54:56.643Z",
  "networkType": "ethereum",
  "devdoc": {
    "kind": "dev",
    "methods": {
      "cancelParticipateRoutine(uint256)": {
        "details": "Participant Can Cancel Participation Routine",
        "params": {
          "id": "Routine Id"
        }
      },
      "createRoutine(uint8)": {
        "details": "Owner Make Routine, and Recruiting Participants",
        "params": {
          "_term": "Certificate Term"
        }
      },
      "deleteRoutine(uint256)": {
        "details": "Owner Can Cancel Recruiting Routine. But Owner can not be gave back fee",
        "params": {
          "id": "Routine Id"
        }
      },
      "participateRoutine(uint256)": {
        "details": "Participant Can Cancel Participation Routine",
        "params": {
          "id": "Routine Id"
        }
      }
    },
    "version": 1
  },
  "userdoc": {
    "kind": "user",
    "methods": {},
    "version": 1
  }
}