{
  "contractName": "MerkleRoutine",
  "abi": [
    {
      "inputs": [],
      "stateMutability": "nonpayable",
      "type": "constructor"
    },
    {
      "anonymous": false,
      "inputs": [
        {
          "indexed": false,
          "internalType": "uint256",
          "name": "id",
          "type": "uint256"
        }
      ],
      "name": "CreateRoutine",
      "type": "event"
    },
    {
      "inputs": [
        {
          "internalType": "enum MerkleRoutine.Term",
          "name": "_term",
          "type": "uint8"
        }
      ],
      "name": "createRoutine",
      "outputs": [],
      "stateMutability": "payable",
      "type": "function"
    },
    {
      "inputs": [
        {
          "internalType": "uint256",
          "name": "id",
          "type": "uint256"
        }
      ],
      "name": "deleteRoutine",
      "outputs": [],
      "stateMutability": "payable",
      "type": "function"
    },
    {
      "inputs": [
        {
          "internalType": "uint256",
          "name": "id",
          "type": "uint256"
        }
      ],
      "name": "cancelParticipateRoutine",
      "outputs": [],
      "stateMutability": "payable",
      "type": "function"
    },
    {
      "inputs": [
        {
          "internalType": "uint256",
          "name": "id",
          "type": "uint256"
        }
      ],
      "name": "participateRoutine",
      "outputs": [],
      "stateMutability": "payable",
      "type": "function"
    },
    {
      "inputs": [
        {
          "internalType": "uint256",
          "name": "id",
          "type": "uint256"
        }
      ],
      "name": "startRoutine",
      "outputs": [],
      "stateMutability": "payable",
      "type": "function"
    },
    {
      "inputs": [
        {
          "internalType": "address",
          "name": "addr",
          "type": "address"
        },
        {
          "internalType": "uint256",
          "name": "id",
          "type": "uint256"
        }
      ],
      "name": "failRoutine",
      "outputs": [],
      "stateMutability": "nonpayable",
      "type": "function"
    },
    {
      "inputs": [
        {
          "internalType": "uint256[]",
          "name": "ids",
          "type": "uint256[]"
        },
        {
          "internalType": "address[]",
          "name": "addrs",
          "type": "address[]"
        },
        {
          "internalType": "uint256[]",
          "name": "nums",
          "type": "uint256[]"
        }
      ],
      "name": "verifyCertificate",
      "outputs": [],
      "stateMutability": "nonpayable",
      "type": "function"
    },
    {
      "inputs": [
        {
          "internalType": "uint256",
          "name": "id",
          "type": "uint256"
        }
      ],
      "name": "endRoutine",
      "outputs": [],
      "stateMutability": "nonpayable",
      "type": "function"
    },
    {
      "inputs": [
        {
          "internalType": "uint256",
          "name": "id",
          "type": "uint256"
        }
      ],
      "name": "_caculateOwnerAwards",
      "outputs": [
        {
          "internalType": "uint256",
          "name": "",
          "type": "uint256"
        }
      ],
      "stateMutability": "view",
      "type": "function"
    },
    {
      "inputs": [
        {
          "internalType": "uint256",
          "name": "id",
          "type": "uint256"
        },
        {
          "internalType": "uint256",
          "name": "OwnersAwards",
          "type": "uint256"
        }
      ],
      "name": "_calculateParticipantsAwards",
      "outputs": [
        {
          "internalType": "uint256",
          "name": "",
          "type": "uint256"
        }
      ],
      "stateMutability": "view",
      "type": "function"
    },
    {
      "inputs": [
        {
          "internalType": "uint256",
          "name": "id",
          "type": "uint256"
        },
        {
          "internalType": "address",
          "name": "addr",
          "type": "address"
        }
      ],
      "name": "_calculateRefreesAwards",
      "outputs": [
        {
          "internalType": "uint256",
          "name": "",
          "type": "uint256"
        }
      ],
      "stateMutability": "view",
      "type": "function"
    },
    {
      "inputs": [],
      "name": "routineTotalBalance",
      "outputs": [
        {
          "internalType": "uint256",
          "name": "",
          "type": "uint256"
        }
      ],
      "stateMutability": "view",
      "type": "function"
    },
    {
      "inputs": [
        {
          "internalType": "uint256",
          "name": "id",
          "type": "uint256"
        }
      ],
      "name": "routineById",
      "outputs": [
        {
          "components": [
            {
              "internalType": "uint256",
              "name": "fee",
              "type": "uint256"
            },
            {
              "internalType": "enum MerkleRoutine.Status",
              "name": "status",
              "type": "uint8"
            },
            {
              "internalType": "enum MerkleRoutine.Term",
              "name": "term",
              "type": "uint8"
            },
            {
              "internalType": "uint256",
              "name": "participates",
              "type": "uint256"
            },
            {
              "internalType": "uint256",
              "name": "totalParticipates",
              "type": "uint256"
            },
            {
              "internalType": "uint256",
              "name": "amount",
              "type": "uint256"
            }
          ],
          "internalType": "struct MerkleRoutine.Routine",
          "name": "",
          "type": "tuple"
        }
      ],
      "stateMutability": "view",
      "type": "function"
    },
    {
      "inputs": [
        {
          "internalType": "address",
          "name": "user",
          "type": "address"
        }
      ],
      "name": "routinNumByAddress",
      "outputs": [
        {
          "internalType": "uint256",
          "name": "",
          "type": "uint256"
        }
      ],
      "stateMutability": "view",
      "type": "function"
    },
    {
      "inputs": [
        {
          "internalType": "uint256",
          "name": "id",
          "type": "uint256"
        }
      ],
      "name": "routineStatusById",
      "outputs": [
        {
          "internalType": "enum MerkleRoutine.Status",
          "name": "",
          "type": "uint8"
        }
      ],
      "stateMutability": "view",
      "type": "function"
    },
    {
      "inputs": [
        {
          "internalType": "address",
          "name": "addr",
          "type": "address"
        },
        {
          "internalType": "uint256",
          "name": "index",
          "type": "uint256"
        }
      ],
      "name": "routineIdByAddressAndIndex",
      "outputs": [
        {
          "internalType": "uint256",
          "name": "",
          "type": "uint256"
        }
      ],
      "stateMutability": "view",
      "type": "function"
    },
    {
      "inputs": [
        {
          "internalType": "uint256",
          "name": "id",
          "type": "uint256"
        }
      ],
      "name": "participantNumById",
      "outputs": [
        {
          "internalType": "uint256",
          "name": "",
          "type": "uint256"
        }
      ],
      "stateMutability": "view",
      "type": "function"
    },
    {
      "inputs": [
        {
          "internalType": "uint256",
          "name": "id",
          "type": "uint256"
        }
      ],
      "name": "ownerOfRoutine",
      "outputs": [
        {
          "internalType": "address",
          "name": "",
          "type": "address"
        }
      ],
      "stateMutability": "view",
      "type": "function"
    },
    {
      "inputs": [
        {
          "internalType": "uint256",
          "name": "id",
          "type": "uint256"
        },
        {
          "internalType": "uint256",
          "name": "index",
          "type": "uint256"
        }
      ],
      "name": "participantOfRoutineByIndex",
      "outputs": [
        {
          "internalType": "address",
          "name": "",
          "type": "address"
        }
      ],
      "stateMutability": "view",
      "type": "function"
    },
    {
      "inputs": [],
      "name": "contractBalance",
      "outputs": [
        {
          "internalType": "uint256",
          "name": "",
          "type": "uint256"
        }
      ],
      "stateMutability": "view",
      "type": "function"
    }
  ],
  "bytecode": "0x60a060405234801561001057600080fd5b503373ffffffffffffffffffffffffffffffffffffffff1660808173ffffffffffffffffffffffffffffffffffffffff16815250506080516134a861006e6000396000818161068001528181610afc0152610e7001526134a86000f3fe60806040526004361061011e5760003560e01c80637113f835116100a0578063c0afb5fa11610064578063c0afb5fa146103f3578063d972b9c51461040f578063e1e148501461042b578063f4115fc714610468578063f5800f34146104a55761011e565b80637113f835146102e85780638608f616146103255780638b7afe2e14610362578063a34c124b1461038d578063b885ce8b146103b65761011e565b80632ce71c86116100e75780632ce71c861461020057806354fa996b1461023d57806357d2c6821461027a57806362f8ff45146102965780636e4d0f46146102bf5761011e565b8062aa9773146101235780630fa80bb21461013f578063108685671461015b578063114c6c0714610198578063264d5d31146101c3575b600080fd5b61013d60048036038101906101389190612699565b6104e2565b005b61015960048036038101906101549190612699565b610667565b005b34801561016757600080fd5b50610182600480360381019061017d9190612699565b6107c0565b60405161018f919061273d565b60405180910390f35b3480156101a457600080fd5b506101ad6107ed565b6040516101ba9190612767565b60405180910390f35b3480156101cf57600080fd5b506101ea60048036038101906101e59190612699565b6107f6565b6040516101f79190612767565b60405180910390f35b34801561020c57600080fd5b5061022760048036038101906102229190612699565b610816565b6040516102349190612863565b60405180910390f35b34801561024957600080fd5b50610264600480360381019061025f9190612699565b6108e1565b6040516102719190612767565b60405180910390f35b610294600480360381019061028f91906128a3565b6109f5565b005b3480156102a257600080fd5b506102bd60048036038101906102b8919061292e565b610afa565b005b3480156102cb57600080fd5b506102e660048036038101906102e19190612b8a565b610c20565b005b3480156102f457600080fd5b5061030f600480360381019061030a9190612c31565b610d30565b60405161031c9190612767565b60405180910390f35b34801561033157600080fd5b5061034c60048036038101906103479190612c5e565b610d79565b6040516103599190612767565b60405180910390f35b34801561036e57600080fd5b50610377610e66565b6040516103849190612767565b60405180910390f35b34801561039957600080fd5b506103b460048036038101906103af9190612699565b610e6e565b005b3480156103c257600080fd5b506103dd60048036038101906103d8919061292e565b61128d565b6040516103ea9190612767565b60405180910390f35b61040d60048036038101906104089190612699565b6112f3565b005b61042960048036038101906104249190612699565b61150b565b005b34801561043757600080fd5b50610452600480360381019061044d9190612c9e565b61169a565b60405161045f9190612767565b60405180910390f35b34801561047457600080fd5b5061048f600480360381019061048a9190612699565b61175d565b60405161049c9190612ced565b60405180910390f35b3480156104b157600080fd5b506104cc60048036038101906104c79190612c9e565b61179a565b6040516104d99190612ced565b60405180910390f35b6104ec81336117f4565b61052b576040517f08c379a000000000000000000000000000000000000000000000000000000000815260040161052290612d8b565b60405180910390fd5b61053581336118ce565b610574576040517f08c379a000000000000000000000000000000000000000000000000000000000815260040161056b90612d8b565b60405180910390fd5b60006003811115610588576105876126c6565b5b6001600083815260200190815260200160002060010160009054906101000a900460ff1660038111156105be576105bd6126c6565b5b146105fe576040517f08c379a00000000000000000000000000000000000000000000000000000000081526004016105f590612e1d565b60405180910390fd5b3373ffffffffffffffffffffffffffffffffffffffff166108fc60016000848152602001908152602001600020600001549081150290604051600060405180830381858888f1935050505015801561065a573d6000803e3d6000fd5b506106648161199f565b50565b3373ffffffffffffffffffffffffffffffffffffffff167f000000000000000000000000000000000000000000000000000000000000000073ffffffffffffffffffffffffffffffffffffffff16146106f5576040517f08c379a00000000000000000000000000000000000000000000000000000000081526004016106ec90612eaf565b60405180910390fd5b60006003811115610709576107086126c6565b5b6001600083815260200190815260200160002060010160009054906101000a900460ff16600381111561073f5761073e6126c6565b5b1461077f576040517f08c379a000000000000000000000000000000000000000000000000000000000815260040161077690612f41565b60405180910390fd5b600180600083815260200190815260200160002060010160006101000a81548160ff021916908360038111156107b8576107b76126c6565b5b021790555050565b60006001600083815260200190815260200160002060010160009054906101000a900460ff169050919050565b60008054905090565b600060016000838152602001908152602001600020600201549050919050565b61081e6125f5565b600160008381526020019081526020016000206040518060c0016040529081600082015481526020016001820160009054906101000a900460ff16600381111561086b5761086a6126c6565b5b600381111561087d5761087c6126c6565b5b81526020016001820160019054906101000a900460ff1660088111156108a6576108a56126c6565b5b60088111156108b8576108b76126c6565b5b815260200160028201548152602001600382015481526020016004820154815250509050919050565b6000806001600084815260200190815260200160002060040154905060006001600085815260200190815260200160002060030154905060006001600086815260200190815260200160002060020154905060006001826109429190612f90565b60018461094f9190612fc4565b6109599190612ff8565b9050600060018361096a9190612fc4565b846109759190612ff8565b9050600060016000898152602001908152602001600020600001548461099b9190612ff8565b866109a69190612f90565b905060008260056109b79190612ff8565b84846109c39190612f90565b8360046109d09190612ff8565b6109da9190612ff8565b6109e49190613081565b905080975050505050505050919050565b60003411610a38576040517f08c379a0000000000000000000000000000000000000000000000000000000008152600401610a2f90613124565b60405180910390fd5b60006040518060c0016040528034815260200160006003811115610a5f57610a5e6126c6565b5b8152602001836008811115610a7757610a766126c6565b5b8152602001600081526020016000815260200160008152509050610a9a81611a1b565b610ab16001600054610aac9190612f90565b611b7d565b7fbb3dcfc785c1d90cf1d22e80b3ebe1cab8b348b9fa4a718982f34c10851bde376001600054610ae19190612f90565b604051610aee9190612767565b60405180910390a15050565b7f000000000000000000000000000000000000000000000000000000000000000073ffffffffffffffffffffffffffffffffffffffff163373ffffffffffffffffffffffffffffffffffffffff1614610b88576040517f08c379a0000000000000000000000000000000000000000000000000000000008152600401610b7f90612eaf565b60405180910390fd5b60016003811115610b9c57610b9b6126c6565b5b6001600083815260200190815260200160002060010160009054906101000a900460ff166003811115610bd257610bd16126c6565b5b14610c12576040517f08c379a0000000000000000000000000000000000000000000000000000000008152600401610c09906131b6565b60405180910390fd5b610c1c8183611d34565b5050565b610c2983611d78565b610c68576040517f08c379a0000000000000000000000000000000000000000000000000000000008152600401610c5f906131b6565b60405180910390fd5b610c728383611e1a565b15610cb2576040517f08c379a0000000000000000000000000000000000000000000000000000000008152600401610ca990613248565b60405180910390fd5b60005b8351811015610d2a57610d17848281518110610cd457610cd3613268565b5b6020026020010151848381518110610cef57610cee613268565b5b6020026020010151848481518110610d0a57610d09613268565b5b6020026020010151611e96565b8080610d2290613297565b915050610cb5565b50505050565b6000600660008373ffffffffffffffffffffffffffffffffffffffff1673ffffffffffffffffffffffffffffffffffffffff168152602001908152602001600020549050919050565b60008060016000858152602001908152602001600020600001546001600086815260200190815260200160002060020154610db49190612ff8565b6001600086815260200190815260200160002060040154610dd59190612f90565b905060086000858152602001908152602001600020546005610df79190612ff8565b6007600086815260200190815260200160002060008573ffffffffffffffffffffffffffffffffffffffff1673ffffffffffffffffffffffffffffffffffffffff1681526020019081526020016000205482610e539190612ff8565b610e5d9190613081565b91505092915050565b600047905090565b7f000000000000000000000000000000000000000000000000000000000000000073ffffffffffffffffffffffffffffffffffffffff163373ffffffffffffffffffffffffffffffffffffffff1614610efc576040517f08c379a0000000000000000000000000000000000000000000000000000000008152600401610ef390612eaf565b60405180910390fd5b6000610f07826108e1565b90506000610f15838361169a565b905060005b6001600085815260200190815260200160002060020154811015611158576003600085815260200190815260200160002060009054906101000a900473ffffffffffffffffffffffffffffffffffffffff1673ffffffffffffffffffffffffffffffffffffffff16600560008681526020019081526020016000208281548110610fa757610fa6613268565b5b9060005260206000200160009054906101000a900473ffffffffffffffffffffffffffffffffffffffff1673ffffffffffffffffffffffffffffffffffffffff16146110a95760056000858152602001908152602001600020818154811061101257611011613268565b5b9060005260206000200160009054906101000a900473ffffffffffffffffffffffffffffffffffffffff1673ffffffffffffffffffffffffffffffffffffffff166108fc8360016000888152602001908152602001600020600001546110789190612fc4565b9081150290604051600060405180830381858888f193505050501580156110a3573d6000803e3d6000fd5b50611145565b6003600085815260200190815260200160002060009054906101000a900473ffffffffffffffffffffffffffffffffffffffff1673ffffffffffffffffffffffffffffffffffffffff166108fc8460016000888152602001908152602001600020600001546111189190612fc4565b9081150290604051600060405180830381858888f19350505050158015611143573d6000803e3d6000fd5b505b808061115090613297565b915050610f1a565b5060005b600980549050811015611248576009818154811061117d5761117c613268565b5b9060005260206000200160009054906101000a900473ffffffffffffffffffffffffffffffffffffffff1673ffffffffffffffffffffffffffffffffffffffff166108fc61120986600985815481106111d9576111d8613268565b5b9060005260206000200160009054906101000a900473ffffffffffffffffffffffffffffffffffffffff16610d79565b9081150290604051600060405180830381858888f19350505050158015611234573d6000803e3d6000fd5b50808061124090613297565b91505061115c565b5060036001600085815260200190815260200160002060010160006101000a81548160ff02191690836003811115611283576112826126c6565b5b0217905550505050565b6000600460008473ffffffffffffffffffffffffffffffffffffffff1673ffffffffffffffffffffffffffffffffffffffff16815260200190815260200160002082815481106112e0576112df613268565b5b9060005260206000200154905092915050565b3373ffffffffffffffffffffffffffffffffffffffff166003600083815260200190815260200160002060009054906101000a900473ffffffffffffffffffffffffffffffffffffffff1673ffffffffffffffffffffffffffffffffffffffff1614611394576040517f08c379a000000000000000000000000000000000000000000000000000000000815260040161138b90612eaf565b60405180910390fd5b600060038111156113a8576113a76126c6565b5b6001600083815260200190815260200160002060010160009054906101000a900460ff1660038111156113de576113dd6126c6565b5b1461141e576040517f08c379a000000000000000000000000000000000000000000000000000000000815260040161141590612e1d565b60405180910390fd5b60005b60016000838152602001908152602001600020600201548110156114fe5760056000838152602001908152602001600020818154811061146457611463613268565b5b9060005260206000200160009054906101000a900473ffffffffffffffffffffffffffffffffffffffff1673ffffffffffffffffffffffffffffffffffffffff166108fc60016000858152602001908152602001600020600001549081150290604051600060405180830381858888f193505050501580156114ea573d6000803e3d6000fd5b5080806114f690613297565b915050611421565b5061150881611fe8565b50565b60016000828152602001908152602001600020600001543414611563576040517f08c379a000000000000000000000000000000000000000000000000000000000815260040161155a90613124565b60405180910390fd5b60006003811115611577576115766126c6565b5b6001600083815260200190815260200160002060010160009054906101000a900460ff1660038111156115ad576115ac6126c6565b5b146115ed576040517f08c379a00000000000000000000000000000000000000000000000000000000081526004016115e490612e1d565b60405180910390fd5b3373ffffffffffffffffffffffffffffffffffffffff166003600083815260200190815260200160002060009054906101000a900473ffffffffffffffffffffffffffffffffffffffff1673ffffffffffffffffffffffffffffffffffffffff160361168e576040517f08c379a000000000000000000000000000000000000000000000000000000000815260040161168590613351565b60405180910390fd5b61169781611b7d565b50565b600080600160008581526020019081526020016000206000015460016000868152602001908152602001600020600201546116d59190612ff8565b60016000868152602001908152602001600020600401546116f69190612f90565b9050600060056004836117099190612ff8565b6117139190613081565b905060006001806000888152602001908152602001600020600201546117399190612f90565b85836117459190612f90565b61174f9190613081565b905080935050505092915050565b60006003600083815260200190815260200160002060009054906101000a900473ffffffffffffffffffffffffffffffffffffffff169050919050565b60006005600084815260200190815260200160002082815481106117c1576117c0613268565b5b9060005260206000200160009054906101000a900473ffffffffffffffffffffffffffffffffffffffff16905092915050565b600080600090505b600660008473ffffffffffffffffffffffffffffffffffffffff1673ffffffffffffffffffffffffffffffffffffffff168152602001908152602001600020548110156118c25783600460008573ffffffffffffffffffffffffffffffffffffffff1673ffffffffffffffffffffffffffffffffffffffff168152602001908152602001600020828154811061189557611894613268565b5b9060005260206000200154036118af5760019150506118c8565b80806118ba90613297565b9150506117fc565b50600090505b92915050565b600080600090505b6001600085815260200190815260200160002060020154811015611993578273ffffffffffffffffffffffffffffffffffffffff166005600086815260200190815260200160002082815481106119305761192f613268565b5b9060005260206000200160009054906101000a900473ffffffffffffffffffffffffffffffffffffffff1673ffffffffffffffffffffffffffffffffffffffff1603611980576001915050611999565b808061198b90613297565b9150506118d6565b50600090505b92915050565b60016000828152602001908152602001600020600001546001600083815260200190815260200160002060040160008282546119db9190612f90565b92505081905550600160008281526020019081526020016000206003016000815480929190611a0990613371565b9190505550611a188133611d34565b50565b33600360008054815260200190815260200160002060006101000a81548173ffffffffffffffffffffffffffffffffffffffff021916908373ffffffffffffffffffffffffffffffffffffffff160217905550600260003373ffffffffffffffffffffffffffffffffffffffff1673ffffffffffffffffffffffffffffffffffffffff1681526020019081526020016000206000815480929190611abe90613297565b91905055508060016000805481526020019081526020016000206000820151816000015560208201518160010160006101000a81548160ff02191690836003811115611b0d57611b0c6126c6565b5b021790555060408201518160010160016101000a81548160ff02191690836008811115611b3d57611b3c6126c6565b5b0217905550606082015181600201556080820151816003015560a08201518160040155905050600080815480929190611b7590613297565b919050555050565b34600160008381526020019081526020016000206004016000828254611ba39190612fc4565b92505081905550600160008281526020019081526020016000206002016000815480929190611bd190613297565b9190505550600160008281526020019081526020016000206003016000815480929190611bfd90613297565b9190505550600660003373ffffffffffffffffffffffffffffffffffffffff1673ffffffffffffffffffffffffffffffffffffffff1681526020019081526020016000206000815480929190611c5290613297565b9190505550600460003373ffffffffffffffffffffffffffffffffffffffff1673ffffffffffffffffffffffffffffffffffffffff16815260200190815260200160002081908060018154018082558091505060019003906000526020600020016000909190919091505560056000828152602001908152602001600020339080600181540180825580915050600190039060005260206000200160009091909190916101000a81548173ffffffffffffffffffffffffffffffffffffffff021916908373ffffffffffffffffffffffffffffffffffffffff16021790555050565b611d3e8282612046565b611d48828261225e565b600160008381526020019081526020016000206002016000815480929190611d6f90613371565b91905055505050565b600080600090505b8251811015611e0f5760016003811115611d9d57611d9c6126c6565b5b60016000858481518110611db457611db3613268565b5b6020026020010151815260200190815260200160002060010160009054906101000a900460ff166003811115611ded57611dec6126c6565b5b14611dfc576000915050611e15565b8080611e0790613297565b915050611d80565b50600190505b919050565b600080600090505b8251811015611e8a57611e69848281518110611e4157611e40613268565b5b6020026020010151848381518110611e5c57611e5b613268565b5b60200260200101516118ce565b611e77576000915050611e90565b8080611e8290613297565b915050611e22565b50600190505b92915050565b60006007600085815260200190815260200160002060008473ffffffffffffffffffffffffffffffffffffffff1673ffffffffffffffffffffffffffffffffffffffff1681526020019081526020016000205403611f52576009829080600181540180825580915050600190039060005260206000200160009091909190916101000a81548173ffffffffffffffffffffffffffffffffffffffff021916908373ffffffffffffffffffffffffffffffffffffffff1602179055505b806007600085815260200190815260200160002060008473ffffffffffffffffffffffffffffffffffffffff1673ffffffffffffffffffffffffffffffffffffffff1681526020019081526020016000206000828254611fb29190612fc4565b9250508190555080600860008581526020019081526020016000206000828254611fdc9190612fc4565b92505081905550505050565b6000600160008381526020019081526020016000206004018190555060026001600083815260200190815260200160002060010160006101000a81548160ff0219169083600381111561203e5761203d6126c6565b5b021790555050565b600061205283836123c2565b9050600460008373ffffffffffffffffffffffffffffffffffffffff1673ffffffffffffffffffffffffffffffffffffffff1681526020019081526020016000206001600660008573ffffffffffffffffffffffffffffffffffffffff1673ffffffffffffffffffffffffffffffffffffffff168152602001908152602001600020546120df9190612f90565b815481106120f0576120ef613268565b5b9060005260206000200154600460008473ffffffffffffffffffffffffffffffffffffffff1673ffffffffffffffffffffffffffffffffffffffff168152602001908152602001600020828154811061214c5761214b613268565b5b9060005260206000200181905550600660008373ffffffffffffffffffffffffffffffffffffffff1673ffffffffffffffffffffffffffffffffffffffff16815260200190815260200160002060008154809291906121aa90613371565b9190505550600460008373ffffffffffffffffffffffffffffffffffffffff1673ffffffffffffffffffffffffffffffffffffffff1681526020019081526020016000206001600660008573ffffffffffffffffffffffffffffffffffffffff1673ffffffffffffffffffffffffffffffffffffffff1681526020019081526020016000205461223a9190612f90565b8154811061224b5761224a613268565b5b9060005260206000200160009055505050565b600061226a83836124e0565b9050600560008481526020019081526020016000206001806000868152602001908152602001600020600201546122a19190612f90565b815481106122b2576122b1613268565b5b9060005260206000200160009054906101000a900473ffffffffffffffffffffffffffffffffffffffff1660056000858152602001908152602001600020828154811061230257612301613268565b5b9060005260206000200160006101000a81548173ffffffffffffffffffffffffffffffffffffffff021916908373ffffffffffffffffffffffffffffffffffffffff1602179055506005600084815260200190815260200160002060018060008681526020019081526020016000206002015461237f9190612f90565b815481106123905761238f613268565b5b9060005260206000200160006101000a81549073ffffffffffffffffffffffffffffffffffffffff0219169055505050565b600080600090506123d384846117f4565b612412576040517f08c379a0000000000000000000000000000000000000000000000000000000008152600401612409906133e6565b60405180910390fd5b60005b600660008573ffffffffffffffffffffffffffffffffffffffff1673ffffffffffffffffffffffffffffffffffffffff168152602001908152602001600020548110156124d55784600460008673ffffffffffffffffffffffffffffffffffffffff1673ffffffffffffffffffffffffffffffffffffffff16815260200190815260200160002082815481106124ae576124ad613268565b5b9060005260206000200154036124c2578091505b80806124cd90613297565b915050612415565b508091505092915050565b600080600090506124f184846118ce565b612530576040517f08c379a000000000000000000000000000000000000000000000000000000000815260040161252790613452565b60405180910390fd5b60005b60016000868152602001908152602001600020600201548110156125ea578373ffffffffffffffffffffffffffffffffffffffff1660056000878152602001908152602001600020828154811061258d5761258c613268565b5b9060005260206000200160009054906101000a900473ffffffffffffffffffffffffffffffffffffffff1673ffffffffffffffffffffffffffffffffffffffff16036125d7578091505b80806125e290613297565b915050612533565b508091505092915050565b6040518060c00160405280600081526020016000600381111561261b5761261a6126c6565b5b815260200160006008811115612634576126336126c6565b5b81526020016000815260200160008152602001600081525090565b6000604051905090565b600080fd5b600080fd5b6000819050919050565b61267681612663565b811461268157600080fd5b50565b6000813590506126938161266d565b92915050565b6000602082840312156126af576126ae612659565b5b60006126bd84828501612684565b91505092915050565b7f4e487b7100000000000000000000000000000000000000000000000000000000600052602160045260246000fd5b60048110612706576127056126c6565b5b50565b6000819050612717826126f5565b919050565b600061272782612709565b9050919050565b6127378161271c565b82525050565b6000602082019050612752600083018461272e565b92915050565b61276181612663565b82525050565b600060208201905061277c6000830184612758565b92915050565b61278b81612663565b82525050565b61279a8161271c565b82525050565b600981106127b1576127b06126c6565b5b50565b60008190506127c2826127a0565b919050565b60006127d2826127b4565b9050919050565b6127e2816127c7565b82525050565b60c0820160008201516127fe6000850182612782565b5060208201516128116020850182612791565b50604082015161282460408501826127d9565b5060608201516128376060850182612782565b50608082015161284a6080850182612782565b5060a082015161285d60a0850182612782565b50505050565b600060c08201905061287860008301846127e8565b92915050565b6009811061288b57600080fd5b50565b60008135905061289d8161287e565b92915050565b6000602082840312156128b9576128b8612659565b5b60006128c78482850161288e565b91505092915050565b600073ffffffffffffffffffffffffffffffffffffffff82169050919050565b60006128fb826128d0565b9050919050565b61290b816128f0565b811461291657600080fd5b50565b60008135905061292881612902565b92915050565b6000806040838503121561294557612944612659565b5b600061295385828601612919565b925050602061296485828601612684565b9150509250929050565b600080fd5b6000601f19601f8301169050919050565b7f4e487b7100000000000000000000000000000000000000000000000000000000600052604160045260246000fd5b6129bc82612973565b810181811067ffffffffffffffff821117156129db576129da612984565b5b80604052505050565b60006129ee61264f565b90506129fa82826129b3565b919050565b600067ffffffffffffffff821115612a1a57612a19612984565b5b602082029050602081019050919050565b600080fd5b6000612a43612a3e846129ff565b6129e4565b90508083825260208201905060208402830185811115612a6657612a65612a2b565b5b835b81811015612a8f5780612a7b8882612684565b845260208401935050602081019050612a68565b5050509392505050565b600082601f830112612aae57612aad61296e565b5b8135612abe848260208601612a30565b91505092915050565b600067ffffffffffffffff821115612ae257612ae1612984565b5b602082029050602081019050919050565b6000612b06612b0184612ac7565b6129e4565b90508083825260208201905060208402830185811115612b2957612b28612a2b565b5b835b81811015612b525780612b3e8882612919565b845260208401935050602081019050612b2b565b5050509392505050565b600082601f830112612b7157612b7061296e565b5b8135612b81848260208601612af3565b91505092915050565b600080600060608486031215612ba357612ba2612659565b5b600084013567ffffffffffffffff811115612bc157612bc061265e565b5b612bcd86828701612a99565b935050602084013567ffffffffffffffff811115612bee57612bed61265e565b5b612bfa86828701612b5c565b925050604084013567ffffffffffffffff811115612c1b57612c1a61265e565b5b612c2786828701612a99565b9150509250925092565b600060208284031215612c4757612c46612659565b5b6000612c5584828501612919565b91505092915050565b60008060408385031215612c7557612c74612659565b5b6000612c8385828601612684565b9250506020612c9485828601612919565b9150509250929050565b60008060408385031215612cb557612cb4612659565b5b6000612cc385828601612684565b9250506020612cd485828601612684565b9150509250929050565b612ce7816128f0565b82525050565b6000602082019050612d026000830184612cde565b92915050565b600082825260208201905092915050565b7f4558495354204552524f52203a20526f7574696e65204973204e6f742045786960008201527f73742e0000000000000000000000000000000000000000000000000000000000602082015250565b6000612d75602383612d08565b9150612d8082612d19565b604082019050919050565b60006020820190508181036000830152612da481612d68565b9050919050565b7f535441545553204552524f52203a2054686520526f7574696e65204973204e6f60008201527f742052656372756974696e672e00000000000000000000000000000000000000602082015250565b6000612e07602d83612d08565b9150612e1282612dab565b604082019050919050565b60006020820190508181036000830152612e3681612dfa565b9050919050565b7f5045524d495353494f4e204552524f52203a20596f7520446f6e27742048617660008201527f65205065726d697373696f6e2e00000000000000000000000000000000000000602082015250565b6000612e99602d83612d08565b9150612ea482612e3d565b604082019050919050565b60006020820190508181036000830152612ec881612e8c565b9050919050565b7f535441545553204552524f52203a20537461747573206973204e6f74204f6e6760008201527f6f696e672e000000000000000000000000000000000000000000000000000000602082015250565b6000612f2b602583612d08565b9150612f3682612ecf565b604082019050919050565b60006020820190508181036000830152612f5a81612f1e565b9050919050565b7f4e487b7100000000000000000000000000000000000000000000000000000000600052601160045260246000fd5b6000612f9b82612663565b9150612fa683612663565b9250828203905081811115612fbe57612fbd612f61565b5b92915050565b6000612fcf82612663565b9150612fda83612663565b9250828201905080821115612ff257612ff1612f61565b5b92915050565b600061300382612663565b915061300e83612663565b9250817fffffffffffffffffffffffffffffffffffffffffffffffffffffffffffffffff048311821515161561304757613046612f61565b5b828202905092915050565b7f4e487b7100000000000000000000000000000000000000000000000000000000600052601260045260246000fd5b600061308c82612663565b915061309783612663565b9250826130a7576130a6613052565b5b828204905092915050565b7f464545204552524f52203a20596f75204861766520546f20506179204120466560008201527f6500000000000000000000000000000000000000000000000000000000000000602082015250565b600061310e602183612d08565b9150613119826130b2565b604082019050919050565b6000602082019050818103600083015261313d81613101565b9050919050565b7f535441545553204552524f52203a2054686520526f7574696e65204973204e6f60008201527f74204f6e676f696e670000000000000000000000000000000000000000000000602082015250565b60006131a0602983612d08565b91506131ab82613144565b604082019050919050565b600060208201905081810360008301526131cf81613193565b9050919050565b7f4558495354204552524f52203a2054686520416464726573732049732045786960008201527f737420496e2054686520526f7574696e65000000000000000000000000000000602082015250565b6000613232603183612d08565b915061323d826131d6565b604082019050919050565b6000602082019050818103600083015261326181613225565b9050919050565b7f4e487b7100000000000000000000000000000000000000000000000000000000600052603260045260246000fd5b60006132a282612663565b91507fffffffffffffffffffffffffffffffffffffffffffffffffffffffffffffffff82036132d4576132d3612f61565b5b600182019050919050565b7f5045524d495353494f4e204552524f52203a20596f7520417265204f776e657260008201527f204f662054686520526f7574696e650000000000000000000000000000000000602082015250565b600061333b602f83612d08565b9150613346826132df565b604082019050919050565b6000602082019050818103600083015261336a8161332e565b9050919050565b600061337c82612663565b91506000820361338f5761338e612f61565b5b600182039050919050565b7f526f7574696e65204973204e6f742045786973742e0000000000000000000000600082015250565b60006133d0601583612d08565b91506133db8261339a565b602082019050919050565b600060208201905081810360008301526133ff816133c3565b9050919050565b7f5061727469636970616e74204973204e6f742045786973742e00000000000000600082015250565b600061343c601983612d08565b915061344782613406565b602082019050919050565b6000602082019050818103600083015261346b8161342f565b905091905056fea26469706673582212206134a495e74f47a31e591c581481af3d3ab74e3dd05a90b939e198029ba984bc64736f6c63430008100033",
  "immutableReferences": {
    "18": [
      {
        "length": 32,
        "start": 1664
      },
      {
        "length": 32,
        "start": 2812
      },
      {
        "length": 32,
        "start": 3696
      }
    ]
  },
  "source": "//SPDX l\npragma solidity ^0.8.13;\n\ncontract MerkleRoutine {\n    enum Status {\n        Recruiting,\n        Ongoing,\n        Cancellation,\n        End\n    }\n\n    enum Term {\n        EVERY_DAY,\n        WEEKDAY,\n        WEEKEND,\n        ONCE,\n        TWICE,\n        THREE,\n        FOUR,\n        FIVE,\n        SIX\n    }\n\n    address private immutable manager;\n\n    constructor() {\n        manager = msg.sender;\n    }\n\n    // klay => \n    //  => evm    ,     =>  \n\n    //   ?\n    // tx hash or contract  \n    struct Routine {\n        uint256 fee;\n        Status status;\n        Term term;\n        uint256 participates; //  ?     ?\n        uint256 totalParticipates;\n        uint256 amount;\n    }\n\n    uint256 private _totalBalance;\n    mapping(uint256 => Routine) private _routines; //  \n    mapping(address => uint256) private _balances; //   \n    mapping(uint256 => address) private _routineOwner; //   \n    mapping(address => uint256[]) private _participateRoutines; //  id\n    mapping(uint256 => address[]) private _routineParticipants; //  \n    mapping(address => uint256) private _participateRoutinesLen; //\n    mapping(uint256 => mapping(address => uint256)) private _refrees; //     \n    mapping(uint256 => uint256) private _totalRefrees; //  \n    address[] private _refreesNum; //  \n\n    event CreateRoutine(uint256 id);\n\n    /**\n     * @dev Owner Make Routine, and Recruiting Participants\n     * @param _term Certificate Term\n     */\n    function createRoutine(Term _term) public payable {\n        require(msg.value > 0, \"FEE ERROR : You Have To Pay A Fee\");\n        Routine memory routine = Routine(\n            msg.value,\n            Status.Recruiting,\n            _term,\n            0,\n            0,\n            0\n        );\n        _addRoutine(routine);\n        _participateRoutine(_totalBalance - 1);\n        emit CreateRoutine(_totalBalance - 1);\n    }\n\n    /**\n     * @dev Owner Can Cancel Recruiting Routine. But Owner can not be gave back fee\n     * @param id Routine Id\n     */\n    function deleteRoutine(uint256 id) external payable {\n        require(\n            _routineOwner[id] == msg.sender,\n            \"PERMISSION ERROR : You Don't Have Permission.\"\n        );\n        require(\n            _routines[id].status == Status.Recruiting,\n            \"STATUS ERROR : The Routine Is Not Recruiting.\"\n        );\n        for (uint256 i = 0; i < _routines[id].participates; i++) {\n            payable(_routineParticipants[id][i]).transfer(_routines[id].fee);\n        }\n        _cancelRoutine(id);\n    }\n\n    /**\n     * @dev Participant Can Cancel Participation Routine\n     * @param id Routine Id\n     */\n    function cancelParticipateRoutine(uint256 id) external payable {\n        require(\n            _isExistRoutine(id, msg.sender),\n            \"EXIST ERROR : Routine Is Not Exist.\"\n        );\n        require(\n            _isExistParticipant(id, msg.sender),\n            \"EXIST ERROR : Routine Is Not Exist.\"\n        );\n        require(\n            _routines[id].status == Status.Recruiting,\n            \"STATUS ERROR : The Routine Is Not Recruiting.\"\n        );\n        payable(msg.sender).transfer(_routines[id].fee);\n\n        _cancelParticipateRoutine(id);\n    }\n\n    /**\n     * @dev Participant Can Cancel Participation Routine\n     * @param id Routine Id\n     */\n    function participateRoutine(uint256 id) public payable {\n        require(\n            msg.value == _routines[id].fee,\n            \"FEE ERROR : You Have To Pay A Fee\"\n        );\n        require(\n            _routines[id].status == Status.Recruiting,\n            \"STATUS ERROR : The Routine Is Not Recruiting.\"\n        );\n        require(\n            _routineOwner[id] != msg.sender,\n            \"PERMISSION ERROR : You Are Owner Of The Routine\"\n        );\n        _participateRoutine(id);\n    }\n\n    function startRoutine(uint256 id) public payable {\n        require(\n            manager == msg.sender,\n            \"PERMISSION ERROR : You Don't Have Permission.\"\n        );\n        require(\n            _routines[id].status == Status.Recruiting,\n            \"STATUS ERROR : Status is Not Ongoing.\"\n        );\n        _routines[id].status = Status.Ongoing;\n    }\n\n    function failRoutine(address addr, uint256 id) public {\n        require(\n            msg.sender == manager,\n            \"PERMISSION ERROR : You Don't Have Permission.\"\n        );\n        require(\n            _routines[id].status == Status.Ongoing,\n            \"STATUS ERROR : The Routine Is Not Ongoing\"\n        );\n        _deletePariticipant(id, addr);\n    }\n\n    function verifyCertificate(\n        uint256[] memory ids,\n        address[] memory addrs,\n        uint256[] memory nums\n    ) public {\n        require(_checkAllIds(ids), \"STATUS ERROR : The Routine Is Not Ongoing\");\n        require(\n            !_checkAllAddr(ids, addrs),\n            \"EXIST ERROR : The Address Is Exist In The Routine\"\n        );\n        for (uint256 i = 0; i < ids.length; i++) {\n            _addRefrees(ids[i], addrs[i], nums[i]);\n        }\n    }\n\n    function _checkAllIds(uint256[] memory ids) private view returns (bool) {\n        for (uint256 i = 0; i < ids.length; i++) {\n            if (_routines[ids[i]].status != Status.Ongoing) {\n                return false;\n            }\n        }\n        return true;\n    }\n\n    function _checkAllAddr(uint256[] memory ids, address[] memory addrs)\n        private\n        view\n        returns (bool)\n    {\n        for (uint256 i = 0; i < addrs.length; i++) {\n            if (!_isExistParticipant(ids[i], addrs[i])) {\n                return false;\n            }\n        }\n        return true;\n    }\n\n    function endRoutine(uint256 id) public {\n        require(\n            msg.sender == manager,\n            \"PERMISSION ERROR : You Don't Have Permission.\"\n        );\n        uint256 OwnersAwards = _caculateOwnerAwards(id);\n        uint256 participantsAwards = _calculateParticipantsAwards(\n            id,\n            OwnersAwards\n        );\n\n        for (uint256 i = 0; i < _routines[id].participates; i++) {\n            if (_routineParticipants[id][i] != _routineOwner[id]) {\n                payable(_routineParticipants[id][i]).transfer(\n                    _routines[id].fee + participantsAwards\n                );\n                continue;\n            }\n            payable(_routineOwner[id]).transfer(\n                _routines[id].fee + OwnersAwards\n            );\n        }\n\n        for (uint256 i = 0; i < _refreesNum.length; i++) {\n            payable(_refreesNum[i]).transfer(\n                _calculateRefreesAwards(id, _refreesNum[i])\n            );\n        }\n\n        _routines[id].status = Status.End;\n    }\n\n    function _caculateOwnerAwards(uint256 id) public view returns (uint256) {\n        uint256 A = _routines[id].amount;\n        uint256 N = _routines[id].totalParticipates;\n        uint256 S = _routines[id].participates;\n        uint256 head = ((N + 1) * (S - 1));\n        uint256 body = (N * (S + 1));\n        uint256 surplus = A - (S * _routines[id].fee);\n\n        uint256 OwnersAwards = (4 * surplus * (body - head)) / (5 * body);\n        return OwnersAwards;\n    }\n\n    function _calculateParticipantsAwards(uint256 id, uint256 OwnersAwards)\n        public\n        view\n        returns (uint256)\n    {\n        uint256 surplus = _routines[id].amount -\n            (_routines[id].participates * _routines[id].fee);\n        uint256 amount = (surplus * 4) / 5;\n        uint256 participantsAwards = (amount - OwnersAwards) /\n            (_routines[id].participates - 1);\n        return participantsAwards;\n    }\n\n    function _calculateRefreesAwards(uint256 id, address addr)\n        public\n        view\n        returns (uint256)\n    {\n        uint256 surplus = _routines[id].amount -\n            (_routines[id].participates * _routines[id].fee);\n        return (surplus * _refrees[id][addr]) / (5 * _totalRefrees[id]);\n    }\n\n    /**\n     * @dev Make Routine\n     * @param _routine Routine\n     */\n    function _addRoutine(Routine memory _routine) private {\n        _routineOwner[_totalBalance] = msg.sender;\n        _balances[msg.sender]++;\n        _routines[_totalBalance] = _routine;\n        _totalBalance++;\n    }\n\n    function _deletePariticipant(uint256 id, address addr) private {\n        _popParticipateRoutine(id, addr);\n        _popRoutineParticipant(id, addr);\n        _routines[id].participates--;\n    }\n\n    function _cancelParticipateRoutine(uint256 id) private {\n        _routines[id].amount -= _routines[id].fee;\n        _routines[id].totalParticipates--;\n        _deletePariticipant(id, msg.sender);\n    }\n\n    /**\n     * @dev Check that Routine Id Exist in _participateRoutines[addr]\n     * @param id Routine Id\n     * @param addr Participant's Address\n     */\n    function _isExistRoutine(uint256 id, address addr)\n        private\n        view\n        returns (bool)\n    {\n        for (uint256 i = 0; i < _participateRoutinesLen[addr]; i++) {\n            if (_participateRoutines[addr][i] == id) {\n                return true;\n            }\n        }\n        return false;\n    }\n\n    function _isExistParticipant(uint256 id, address addr)\n        private\n        view\n        returns (bool)\n    {\n        for (uint256 i = 0; i < _routines[id].participates; i++) {\n            if (_routineParticipants[id][i] == addr) {\n                return true;\n            }\n        }\n        return false;\n    }\n\n    function _indexOfRoutineFromAddress(uint256 id, address addr)\n        private\n        view\n        returns (uint256)\n    {\n        uint256 index = 0;\n        require(_isExistRoutine(id, addr), \"Routine Is Not Exist.\");\n        for (uint256 i = 0; i < _participateRoutinesLen[addr]; i++) {\n            if (_participateRoutines[addr][i] == id) {\n                index = i;\n            }\n        }\n        return index;\n    }\n\n    function _indexOfParticipantFromId(uint256 id, address addr)\n        private\n        view\n        returns (uint256)\n    {\n        uint256 index = 0;\n        require(_isExistParticipant(id, addr), \"Participant Is Not Exist.\");\n        for (uint256 i = 0; i < _routines[id].participates; i++) {\n            if (_routineParticipants[id][i] == addr) {\n                index = i;\n            }\n        }\n        return index;\n    }\n\n    function _popParticipateRoutine(uint256 id, address addr) private {\n        uint256 index = _indexOfRoutineFromAddress(id, addr);\n\n        _participateRoutines[addr][index] = _participateRoutines[addr][\n            _participateRoutinesLen[addr] - 1\n        ];\n        _participateRoutinesLen[addr]--;\n        delete _participateRoutines[addr][_participateRoutinesLen[addr] - 1];\n    }\n\n    function _popRoutineParticipant(uint256 id, address addr) private {\n        uint256 index = _indexOfParticipantFromId(id, addr);\n\n        _routineParticipants[id][index] = _routineParticipants[id][\n            _routines[id].participates - 1\n        ];\n        delete _routineParticipants[id][_routines[id].participates - 1];\n    }\n\n    function _participateRoutine(uint256 id) private {\n        _routines[id].amount += msg.value;\n        _routines[id].participates++;\n        _routines[id].totalParticipates++;\n        _participateRoutinesLen[msg.sender]++;\n\n        _participateRoutines[msg.sender].push(id);\n        _routineParticipants[id].push(msg.sender);\n    }\n\n    function _cancelRoutine(uint256 id) private {\n        _routines[id].amount = 0;\n        _routines[id].status = Status.Cancellation;\n    }\n\n    function _addRefrees(\n        uint256 id,\n        address addr,\n        uint256 num\n    ) private {\n        if (_refrees[id][addr] == 0) {\n            _refreesNum.push(addr);\n        }\n        _refrees[id][addr] += num;\n        _totalRefrees[id] += num;\n    }\n\n    function routineTotalBalance() public view returns (uint256) {\n        return _totalBalance;\n    }\n\n    function routineById(uint256 id) public view returns (Routine memory) {\n        return _routines[id];\n    }\n\n    function routinNumByAddress(address user) public view returns (uint256) {\n        return _participateRoutinesLen[user];\n    }\n\n    function routineStatusById(uint256 id) public view returns (Status) {\n        return _routines[id].status;\n    }\n\n    function routineIdByAddressAndIndex(address addr, uint256 index)\n        public\n        view\n        returns (uint256)\n    {\n        return _participateRoutines[addr][index];\n    }\n\n    function participantNumById(uint256 id) public view returns (uint256) {\n        return _routines[id].participates;\n    }\n\n    function ownerOfRoutine(uint256 id) public view returns (address) {\n        return _routineOwner[id];\n    }\n\n    function participantOfRoutineByIndex(uint256 id, uint256 index)\n        public\n        view\n        returns (address)\n    {\n        return _routineParticipants[id][index];\n    }\n\n    function contractBalance() public view returns (uint256) {\n        return address(this).balance;\n    }\n}\n",
  "sourcePath": "/Users/odongjae/Desktop/2022Study/dreamplus/MuckleRoutine-contract/contracts/MerkleRoutine.sol",
  "compiler": {
    "name": "solc",
    "version": "0.8.16+commit.07a7930e.Emscripten.clang"
  },
  "schemaVersion": "3.4.9",
  "updatedAt": "2022-11-26T07:09:18.565Z",
  "devdoc": {
    "kind": "dev",
    "methods": {
      "cancelParticipateRoutine(uint256)": {
        "details": "Participant Can Cancel Participation Routine",
        "params": {
          "id": "Routine Id"
        }
      },
      "createRoutine(uint8)": {
        "details": "Owner Make Routine, and Recruiting Participants",
        "params": {
          "_term": "Certificate Term"
        }
      },
      "deleteRoutine(uint256)": {
        "details": "Owner Can Cancel Recruiting Routine. But Owner can not be gave back fee",
        "params": {
          "id": "Routine Id"
        }
      },
      "participateRoutine(uint256)": {
        "details": "Participant Can Cancel Participation Routine",
        "params": {
          "id": "Routine Id"
        }
      }
    },
    "version": 1
  },
  "userdoc": {
    "kind": "user",
    "methods": {},
    "version": 1
  }
}